:020000040800F2
:100000001808002029020008A706000807060008B3
:10001000A506000871050008910B0008000000000B
:10002000000000000000000000000000850700083C
:100030007305000800000000A90600087109000807
:10004000430200084302000843020008430200087C
:10005000430200084302000843020008430200086C
:10006000430200084302000843020008430200085C
:10007000430200084302000843020008430200084C
:10008000430200084302000843020008430200083C
:10009000430200084302000843020008430200082C
:1000A000430200084302000843020008430200081C
:1000B000430200084302000843020008430200080C
:1000C00043020008430200084302000843020008FC
:1000D00043020008E10A0008430200084302000846
:1000E00043020008430200084302000843020008DC
:1000F00043020008430200084302000843020008CC
:1001000043020008430200084302000843020008BB
:1001100043020008430200084302000843020008AB
:10012000430200084302000843020008430200089B
:10013000430200084302000843020008430200088B
:10014000430200084302000843020008430200087B
:10015000430200084302000843020008430200086B
:10016000430200084302000843020008430200085B
:10017000430200084302000843020008430200084B
:10018000430200084302000800F002F800F03CF8C7
:100190000AA090E8000C82448344AAF10107DA45E2
:1001A00001D100F031F8AFF2090EBAE80F0013F0F8
:1001B000010F18BFFB1A43F001031847340A00006F
:1001C000540A0000103A24BF78C878C1FAD8520700
:1001D00024BF30C830C144BF04680C6070470000C1
:1001E0000023002400250026103A28BF78C1FBD840
:1001F000520728BF30C148BF0B6070471FB500F0E1
:10020000F1FC1FBD10B510BD00F0AAF81146FFF7B4
:10021000F5FF00F0BFFC00F0C8F803B4FFF7F2FFF1
:1002200003BC00F0B6FC00000948804709480047BD
:10023000FEE7FEE7FEE7FEE7FEE7FEE7FEE7FEE796
:10024000FEE7FEE704480549054A064B70470000F3
:10025000750900088901000818020020180800200C
:100260001804002018040020704753EA020C00F024
:1002700069802DE9F04B4FF00006002B1FBFB3FA49
:1002800083F503FA05F424FA05F65E4012BF16431F
:10029000B2FA82F502FA05F4C5F120051EBF22FA72
:1002A00005FC44EA0C04203556EA044C4FEA144499
:1002B00018BF641C4FF000084FF00009904271EB2A
:1002C000030C39D3002919BFB1FA81F701FA07F6F7
:1002D000B0FA80F700FA07F6C7F120071EBF20FA30
:1002E00007FC46EA0C062037B6FBF4FCA7EB050733
:1002F000103F07F01F0BCBF120060CFA0BFB2CFA7A
:1003000006F644BFB3460026202FA4BF5E464FF03A
:10031000000B5BEA060C08BF4FF0010B19EB0B0951
:10032000ABFB027C48EB0608C01B06FB02CC0BFBB8
:1003300003CC71EB0C01C1E70B460246414648462F
:10034000BDE8F08B13B54FF000004FF00001AFF3A4
:100350000080BDE81C407047704770477047704789
:10036000754600F02BF8AE4605006946534620F06E
:100370000700854618B020B5FFF764FFBDE82040B0
:100380004FF000064FF000074FF000084FF0000B51
:1003900021F00701AC46ACE8C009ACE8C009ACE804
:1003A000C009ACE8C0098D46704710B50446AFF3EC
:1003B00000802046BDE81040FFF72FBF004870477F
:1003C000B40100202DE9FC410121102000F06EF95C
:1003D0001C20009000258DF804508DF806508DF8F3
:1003E000055001278DF80770DFF8588069464046B0
:1003F00000F0C0F8144E1020308004203081082016
:1004000030820024404636F8341000F0F1F8B0B1E4
:10041000002106EBC4029170D1705560641CE4B2F7
:10042000032CEFD30948856045600949C160077016
:100430004FF40071074800F0E4F8BDE8FC810121A9
:10044000E7E7000000100240D40000200400002074
:1004500000093D00001402400349002008704FF4D9
:100460000071024800F0CDB80400002000140240E2
:100470002DE9F0410646384DEC683146374800F02A
:10048000C3F8074635483146083000F0BDF88046CD
:1004900032483146103000F0B7F810B92F48C07C10
:1004A00010B1FFF7D9FF20E047451ED02FB12C49EE
:1004B000E868884201D92B480444B8F1000F05D000
:1004C0002949E868884201D2081104446868002775
:1004D000A0FB04013B46EA68FFF7C7FE6860EC60DA
:1004E000287800B96F60012028702878002831D062
:1004F000E8686A68B6FBF0F100FB11611144B1FBDA
:10050000F0F200FB121169604FF47A72B6FBF2F35D
:1005100002FB1363AC682344B3FBF2F402FB143315
:10052000AB605400B0FBF4F4B1EB500F00D3411AB0
:10053000B1FBF4F04043B0FBF2F20C484FF4007111
:10054000934203D2BDE8F04100F059B8BDE8F04154
:1005500000F057B8BDE8F08104000020D40000206E
:1005600040420F00E05EF8FF00127A0000140240E3
:10057000FEE770472DE9F041002201274FF0030C00
:1005800007FA02F50B682B40AB422CD106685300EA
:100590000CFA03F4A64306600E79D0F800809E4062
:1005A00046EA080606600E79012E01D0022E12D10D
:1005B0008668A64386604E79D0F808809E4046EA59
:1005C000080686604668AE43466045688E79964068
:1005D000B6B235434560C568A543C560CC799C403B
:1005E000C3681C43C460521C102AC9D3BDE8F08103
:1005F0000246002012690A4200D001207047418360
:10060000704701837047FEE770B504460D462188A8
:100610001148FFF7EDFF38B10020A178814205D0E5
:10062000A0700020606015E00120F6E7626844F6E3
:1006300020639A420ED2991AA94201D8636001E060
:10064000511961606168994204D1E178814201D019
:10065000E07070BD002070BD001002401CB501218B
:10066000202000F023F84FF4E060009001208DF886
:10067000040000218DF8061003218DF805108DF877
:100680000700074C69462046FFF774FFA115204676
:10069000FFF7B5FF4FF4C0612046FFF7B2FF1CBD66
:1006A00000140240FEE7704770470000054A002929
:1006B00003D01168014311607047116881431160D4
:1006C0007047000030380240054A002903D0116805
:1006D0000143116070471168814311607047000049
:1006E0004038024070B5244B196801F00C01234CCE
:1006F00000291ED0661004291DD008291DD00460D1
:10070000196801F0F00109091D4A545C0168E140D3
:1007100041601C6804F4E054A40A145D21FA04F456
:1007200084601B6803F460435B0BD25CD140C16002
:1007300070BD0460E4E70660E2E70F4A121F11682B
:10074000C1F38055116801F03F0135B1B6FBF1F1FD
:100750001468C4F38814614305E0B4FBF1F1146834
:10076000C4F3881461431268C2F30142521C520060
:10077000B1FBF2F10160C3E7083802400024F40045
:1007800022000020704700000CB500220192009268
:100790002749086840F4803008604FF4A043086897
:1007A00000F4003000900198401C0190009810B9AE
:1007B00001989842F3D10868800302D50120009087
:1007C00000E000920098012831D1194840300268B9
:1007D00042F0805202601748026842F440420260D0
:1007E0001348083002680260026842F40042026066
:1007F000026842F4A0520260021F0F4B13600A68A5
:1008000042F080720A600A689201FCD50B4A40F2FD
:1008100005711160016821F003010160016841F078
:10082000020101600168C1F381010229FAD10CBD06
:10083000003802400070004008544007003C02406D
:100840007CB501210846FFF731FF0120009000240C
:100850008DF804408DF806408DF8054002208DF893
:100860000700084E69463046FFF784FE064D6C606F
:10087000AC6001213046FFF7BBFE6870A87000F045
:1008800005F87CBD00000240140000200349002050
:1008900008704FF480710248FFF7B1BE14000020C9
:1008A0000014024070B5044601212C48FFF7A0FE59
:1008B0002B4A00255178884202D05070956018E08C
:1008C000906844F62063984213D21E1AA64201D8BB
:1008D000936001E0204490609068984209D190783C
:1008E000884206D0917021B11078C8B100201070F4
:1008F000556010781B4D4FF4807198B11A48B4FBC5
:10090000F0F300FB134354682344B3FBF0F400FB03
:1009100014305060154B984209D340F2423208E03F
:100920000120E4E72846BDE87040FFF768BE40F2CA
:100930009452B0FBF3F403FB1400B0FBF2F302FBA0
:100940001300B0EB520F04D22846BDE87040FFF709
:1009500058BE2846BDE87040FFF751BE0000024077
:10096000140000200014024020A1070090D00300D2
:100970007047000010B51248016841F47001016031
:100980001048016841F0010101600E4A002108325F
:10099000116002680C4B1A400260031D0B4A1A607A
:1009A000026822F48022026006480C300160FFF7E2
:1009B000EBFE03494FF000608039086010BD000075
:1009C00088ED00E000380240FFFFF6FE1030002402
:1009D00010B5114A1278904201D3002010BD0F4A81
:1009E00000EB800002EB800409B1012000E0002050
:1009F000217C814201D1012010BD207438B12068D2
:100A000000B180474FF08040406AE06002E06068DB
:100A100000B18047012010BD0000002034000020FC
:100A20007FB51048002505706846FFF75BFE029C05
:100A3000DDE90110884200D0640001210846FFF77B
:100A400043FE4FF0804005800749B4FBF1F1491E99
:100A500001854FF0FF31C16201218182058245622B
:100A600001807FBD0000002040420F0030B50446E9
:100A7000002903D0094B1878082801D3FF2030BD86
:100A8000451C1D70064D00EB800345F8234005EB27
:100A9000830399605A600021197430BD0000002062
:100AA0003400002070B500240B4D0C4E0FE004EB19
:100AB000840005EB8001087C38B14FF08040426A29
:100AC000C868101ACA6089688847641CE4B2307824
:100AD0008442ECD370BD00003400002000000020F0
:100AE00070B5164C40F22551204600F02DF8002834
:100AF0000ED0204600F048F8C1B2114A1088030415
:100B000006D444044FF0000307D50A2901D013800E
:100B100070BD40F40040108070BD0D290AD0094D11
:100B2000C0F30D042955401C80B21080C728F3D9AA
:100B3000138070BD40F48040108070BD00100140F3
:100B400020000020EC00002070B5002440F66A125E
:100B5000C1F3421301F01F05012606FA05F2012B2D
:100B60000CD0022B0DD0838A1340090A8E400088D6
:100B700030400BB100B10124204670BD8389134081
:100B8000F3E7038A1340F0E78088C0F3080070475A
:100B9000FEE77047FFF762FDFFF742FF0B4A0C4983
:100BA0000C48FFF763FF04460B4A0C490C48FFF75B
:100BB0005DFF054601212046FFF70AFF0121284677
:100BC000FFF706FFFFF76EFFFCE70000590400087F
:100BD00071040008C50300088D080008A508000876
:100BE000410800084FF04070E1EE100A7047000025
:100BF000100C00080000002034000000C4010008B0
:100C0000440C000834000020E4070000E001000864
:100C100000000000000000000000000000000000D4
:100C200000000000000000000000000000000000C4
:100C30000000000000000102030401020304060793
:040C4000080900009F
:040000050800018965
:00000001FF
